{
  "contracts/EventSystem.sol": {
    "TicketingSystem": {
      "abi": [
        {
          "anonymous": false,
          "inputs": [
            {
              "indexed": true,
              "internalType": "bytes32",
              "name": "eventId",
              "type": "bytes32"
            },
            {
              "indexed": false,
              "internalType": "string",
              "name": "name",
              "type": "string"
            },
            {
              "indexed": false,
              "internalType": "uint256",
              "name": "ticketPrice",
              "type": "uint256"
            },
            {
              "indexed": false,
              "internalType": "uint256",
              "name": "totalTickets",
              "type": "uint256"
            }
          ],
          "name": "EventCreated",
          "type": "event"
        },
        {
          "anonymous": false,
          "inputs": [
            {
              "indexed": true,
              "internalType": "bytes32",
              "name": "eventId",
              "type": "bytes32"
            },
            {
              "indexed": true,
              "internalType": "address",
              "name": "buyer",
              "type": "address"
            }
          ],
          "name": "TicketPurchased",
          "type": "event"
        },
        {
          "inputs": [
            {
              "internalType": "bytes32",
              "name": "eventId",
              "type": "bytes32"
            },
            {
              "internalType": "string",
              "name": "name",
              "type": "string"
            },
            {
              "internalType": "uint256",
              "name": "ticketPrice",
              "type": "uint256"
            },
            {
              "internalType": "uint256",
              "name": "totalTickets",
              "type": "uint256"
            }
          ],
          "name": "createEvent",
          "outputs": [],
          "stateMutability": "nonpayable",
          "type": "function"
        },
        {
          "inputs": [
            {
              "internalType": "bytes32",
              "name": "",
              "type": "bytes32"
            }
          ],
          "name": "events",
          "outputs": [
            {
              "internalType": "string",
              "name": "name",
              "type": "string"
            },
            {
              "internalType": "uint256",
              "name": "ticketPrice",
              "type": "uint256"
            },
            {
              "internalType": "uint256",
              "name": "totalTickets",
              "type": "uint256"
            },
            {
              "internalType": "uint256",
              "name": "soldTickets",
              "type": "uint256"
            }
          ],
          "stateMutability": "view",
          "type": "function"
        },
        {
          "inputs": [
            {
              "internalType": "bytes32",
              "name": "eventId",
              "type": "bytes32"
            }
          ],
          "name": "purchaseTicket",
          "outputs": [],
          "stateMutability": "payable",
          "type": "function"
        }
      ],
      "evm": {
        "bytecode": {
          "linkReferences": {},
          "object": "6080604052348015600f57600080fd5b50610b1c8061001f6000396000f3fe6080604052600436106100345760003560e01c8063129a4202146100395780634502b8f914610055578063bfdc4a611461007e575b600080fd5b610053600480360381019061004e9190610375565b6100be565b005b34801561006157600080fd5b5061007c6004803603810190610077919061051e565b6101c6565b005b34801561008a57600080fd5b506100a560048036038101906100a09190610375565b610273565b6040516100b5949392919061062f565b60405180910390f35b600080600083815260200190815260200160002090508060010154341461011a576040517f08c379a0000000000000000000000000000000000000000000000000000000008152600401610111906106c7565b60405180910390fd5b8060020154816003015410610164576040517f08c379a000000000000000000000000000000000000000000000000000000000815260040161015b90610733565b60405180910390fd5b80600301600081548092919061017990610782565b91905055503373ffffffffffffffffffffffffffffffffffffffff16827f366488f0f4ec9881d3ab82ed9ef41eeca72a93d5fb2ec198df9dd1dd60758d5d60405160405180910390a35050565b60405180608001604052808481526020018381526020018281526020016000815250600080868152602001908152602001600020600082015181600001908161020f91906109d6565b50602082015181600101556040820151816002015560608201518160030155905050837f7202495ab436e73fc6830e3d83996a38c0275c1e8645355dcd87a74e2fbf295a84848460405161026593929190610aa8565b60405180910390a250505050565b6000602052806000526040600020600091509050806000018054610296906107f9565b80601f01602080910402602001604051908101604052809291908181526020018280546102c2906107f9565b801561030f5780601f106102e45761010080835404028352916020019161030f565b820191906000526020600020905b8154815290600101906020018083116102f257829003601f168201915b5050505050908060010154908060020154908060030154905084565b6000604051905090565b600080fd5b600080fd5b6000819050919050565b6103528161033f565b811461035d57600080fd5b50565b60008135905061036f81610349565b92915050565b60006020828403121561038b5761038a610335565b5b600061039984828501610360565b91505092915050565b600080fd5b600080fd5b6000601f19601f8301169050919050565b7f4e487b7100000000000000000000000000000000000000000000000000000000600052604160045260246000fd5b6103f5826103ac565b810181811067ffffffffffffffff82111715610414576104136103bd565b5b80604052505050565b600061042761032b565b905061043382826103ec565b919050565b600067ffffffffffffffff821115610453576104526103bd565b5b61045c826103ac565b9050602081019050919050565b82818337600083830152505050565b600061048b61048684610438565b61041d565b9050828152602081018484840111156104a7576104a66103a7565b5b6104b2848285610469565b509392505050565b600082601f8301126104cf576104ce6103a2565b5b81356104df848260208601610478565b91505092915050565b6000819050919050565b6104fb816104e8565b811461050657600080fd5b50565b600081359050610518816104f2565b92915050565b6000806000806080858703121561053857610537610335565b5b600061054687828801610360565b945050602085013567ffffffffffffffff8111156105675761056661033a565b5b610573878288016104ba565b935050604061058487828801610509565b925050606061059587828801610509565b91505092959194509250565b600081519050919050565b600082825260208201905092915050565b60005b838110156105db5780820151818401526020810190506105c0565b60008484015250505050565b60006105f2826105a1565b6105fc81856105ac565b935061060c8185602086016105bd565b610615816103ac565b840191505092915050565b610629816104e8565b82525050565b6000608082019050818103600083015261064981876105e7565b90506106586020830186610620565b6106656040830185610620565b6106726060830184610620565b95945050505050565b7f496e636f7272656374207469636b657420707269636500000000000000000000600082015250565b60006106b16016836105ac565b91506106bc8261067b565b602082019050919050565b600060208201905081810360008301526106e0816106a4565b9050919050565b7f5469636b65747320736f6c64206f757400000000000000000000000000000000600082015250565b600061071d6010836105ac565b9150610728826106e7565b602082019050919050565b6000602082019050818103600083015261074c81610710565b9050919050565b7f4e487b7100000000000000000000000000000000000000000000000000000000600052601160045260246000fd5b600061078d826104e8565b91507fffffffffffffffffffffffffffffffffffffffffffffffffffffffffffffffff82036107bf576107be610753565b5b600182019050919050565b7f4e487b7100000000000000000000000000000000000000000000000000000000600052602260045260246000fd5b6000600282049050600182168061081157607f821691505b602082108103610824576108236107ca565b5b50919050565b60008190508160005260206000209050919050565b60006020601f8301049050919050565b600082821b905092915050565b60006008830261088c7fffffffffffffffffffffffffffffffffffffffffffffffffffffffffffffffff8261084f565b610896868361084f565b95508019841693508086168417925050509392505050565b6000819050919050565b60006108d36108ce6108c9846104e8565b6108ae565b6104e8565b9050919050565b6000819050919050565b6108ed836108b8565b6109016108f9826108da565b84845461085c565b825550505050565b600090565b610916610909565b6109218184846108e4565b505050565b5b818110156109455761093a60008261090e565b600181019050610927565b5050565b601f82111561098a5761095b8161082a565b6109648461083f565b81016020851015610973578190505b61098761097f8561083f565b830182610926565b50505b505050565b600082821c905092915050565b60006109ad6000198460080261098f565b1980831691505092915050565b60006109c6838361099c565b9150826002028217905092915050565b6109df826105a1565b67ffffffffffffffff8111156109f8576109f76103bd565b5b610a0282546107f9565b610a0d828285610949565b600060209050601f831160018114610a405760008415610a2e578287015190505b610a3885826109ba565b865550610aa0565b601f198416610a4e8661082a565b60005b82811015610a7657848901518255600182019150602085019450602081019050610a51565b86831015610a935784890151610a8f601f89168261099c565b8355505b6001600288020188555050505b505050505050565b60006060820190508181036000830152610ac281866105e7565b9050610ad16020830185610620565b610ade6040830184610620565b94935050505056fea2646970667358221220c90c32658f3f1d685724b369b7701e009e32e53d842de31916a892bcb5906b7a64736f6c634300081a0033",
          "opcodes": "PUSH1 0x80 PUSH1 0x40 MSTORE CALLVALUE DUP1 ISZERO PUSH1 0xF JUMPI PUSH1 0x0 DUP1 REVERT JUMPDEST POP PUSH2 0xB1C DUP1 PUSH2 0x1F PUSH1 0x0 CODECOPY PUSH1 0x0 RETURN INVALID PUSH1 0x80 PUSH1 0x40 MSTORE PUSH1 0x4 CALLDATASIZE LT PUSH2 0x34 JUMPI PUSH1 0x0 CALLDATALOAD PUSH1 0xE0 SHR DUP1 PUSH4 0x129A4202 EQ PUSH2 0x39 JUMPI DUP1 PUSH4 0x4502B8F9 EQ PUSH2 0x55 JUMPI DUP1 PUSH4 0xBFDC4A61 EQ PUSH2 0x7E JUMPI JUMPDEST PUSH1 0x0 DUP1 REVERT JUMPDEST PUSH2 0x53 PUSH1 0x4 DUP1 CALLDATASIZE SUB DUP2 ADD SWAP1 PUSH2 0x4E SWAP2 SWAP1 PUSH2 0x375 JUMP JUMPDEST PUSH2 0xBE JUMP JUMPDEST STOP JUMPDEST CALLVALUE DUP1 ISZERO PUSH2 0x61 JUMPI PUSH1 0x0 DUP1 REVERT JUMPDEST POP PUSH2 0x7C PUSH1 0x4 DUP1 CALLDATASIZE SUB DUP2 ADD SWAP1 PUSH2 0x77 SWAP2 SWAP1 PUSH2 0x51E JUMP JUMPDEST PUSH2 0x1C6 JUMP JUMPDEST STOP JUMPDEST CALLVALUE DUP1 ISZERO PUSH2 0x8A JUMPI PUSH1 0x0 DUP1 REVERT JUMPDEST POP PUSH2 0xA5 PUSH1 0x4 DUP1 CALLDATASIZE SUB DUP2 ADD SWAP1 PUSH2 0xA0 SWAP2 SWAP1 PUSH2 0x375 JUMP JUMPDEST PUSH2 0x273 JUMP JUMPDEST PUSH1 0x40 MLOAD PUSH2 0xB5 SWAP5 SWAP4 SWAP3 SWAP2 SWAP1 PUSH2 0x62F JUMP JUMPDEST PUSH1 0x40 MLOAD DUP1 SWAP2 SUB SWAP1 RETURN JUMPDEST PUSH1 0x0 DUP1 PUSH1 0x0 DUP4 DUP2 MSTORE PUSH1 0x20 ADD SWAP1 DUP2 MSTORE PUSH1 0x20 ADD PUSH1 0x0 KECCAK256 SWAP1 POP DUP1 PUSH1 0x1 ADD SLOAD CALLVALUE EQ PUSH2 0x11A JUMPI PUSH1 0x40 MLOAD PUSH32 0x8C379A000000000000000000000000000000000000000000000000000000000 DUP2 MSTORE PUSH1 0x4 ADD PUSH2 0x111 SWAP1 PUSH2 0x6C7 JUMP JUMPDEST PUSH1 0x40 MLOAD DUP1 SWAP2 SUB SWAP1 REVERT JUMPDEST DUP1 PUSH1 0x2 ADD SLOAD DUP2 PUSH1 0x3 ADD SLOAD LT PUSH2 0x164 JUMPI PUSH1 0x40 MLOAD PUSH32 0x8C379A000000000000000000000000000000000000000000000000000000000 DUP2 MSTORE PUSH1 0x4 ADD PUSH2 0x15B SWAP1 PUSH2 0x733 JUMP JUMPDEST PUSH1 0x40 MLOAD DUP1 SWAP2 SUB SWAP1 REVERT JUMPDEST DUP1 PUSH1 0x3 ADD PUSH1 0x0 DUP2 SLOAD DUP1 SWAP3 SWAP2 SWAP1 PUSH2 0x179 SWAP1 PUSH2 0x782 JUMP JUMPDEST SWAP2 SWAP1 POP SSTORE POP CALLER PUSH20 0xFFFFFFFFFFFFFFFFFFFFFFFFFFFFFFFFFFFFFFFF AND DUP3 PUSH32 0x366488F0F4EC9881D3AB82ED9EF41EECA72A93D5FB2EC198DF9DD1DD60758D5D PUSH1 0x40 MLOAD PUSH1 0x40 MLOAD DUP1 SWAP2 SUB SWAP1 LOG3 POP POP JUMP JUMPDEST PUSH1 0x40 MLOAD DUP1 PUSH1 0x80 ADD PUSH1 0x40 MSTORE DUP1 DUP5 DUP2 MSTORE PUSH1 0x20 ADD DUP4 DUP2 MSTORE PUSH1 0x20 ADD DUP3 DUP2 MSTORE PUSH1 0x20 ADD PUSH1 0x0 DUP2 MSTORE POP PUSH1 0x0 DUP1 DUP7 DUP2 MSTORE PUSH1 0x20 ADD SWAP1 DUP2 MSTORE PUSH1 0x20 ADD PUSH1 0x0 KECCAK256 PUSH1 0x0 DUP3 ADD MLOAD DUP2 PUSH1 0x0 ADD SWAP1 DUP2 PUSH2 0x20F SWAP2 SWAP1 PUSH2 0x9D6 JUMP JUMPDEST POP PUSH1 0x20 DUP3 ADD MLOAD DUP2 PUSH1 0x1 ADD SSTORE PUSH1 0x40 DUP3 ADD MLOAD DUP2 PUSH1 0x2 ADD SSTORE PUSH1 0x60 DUP3 ADD MLOAD DUP2 PUSH1 0x3 ADD SSTORE SWAP1 POP POP DUP4 PUSH32 0x7202495AB436E73FC6830E3D83996A38C0275C1E8645355DCD87A74E2FBF295A DUP5 DUP5 DUP5 PUSH1 0x40 MLOAD PUSH2 0x265 SWAP4 SWAP3 SWAP2 SWAP1 PUSH2 0xAA8 JUMP JUMPDEST PUSH1 0x40 MLOAD DUP1 SWAP2 SUB SWAP1 LOG2 POP POP POP POP JUMP JUMPDEST PUSH1 0x0 PUSH1 0x20 MSTORE DUP1 PUSH1 0x0 MSTORE PUSH1 0x40 PUSH1 0x0 KECCAK256 PUSH1 0x0 SWAP2 POP SWAP1 POP DUP1 PUSH1 0x0 ADD DUP1 SLOAD PUSH2 0x296 SWAP1 PUSH2 0x7F9 JUMP JUMPDEST DUP1 PUSH1 0x1F ADD PUSH1 0x20 DUP1 SWAP2 DIV MUL PUSH1 0x20 ADD PUSH1 0x40 MLOAD SWAP1 DUP2 ADD PUSH1 0x40 MSTORE DUP1 SWAP3 SWAP2 SWAP1 DUP2 DUP2 MSTORE PUSH1 0x20 ADD DUP3 DUP1 SLOAD PUSH2 0x2C2 SWAP1 PUSH2 0x7F9 JUMP JUMPDEST DUP1 ISZERO PUSH2 0x30F JUMPI DUP1 PUSH1 0x1F LT PUSH2 0x2E4 JUMPI PUSH2 0x100 DUP1 DUP4 SLOAD DIV MUL DUP4 MSTORE SWAP2 PUSH1 0x20 ADD SWAP2 PUSH2 0x30F JUMP JUMPDEST DUP3 ADD SWAP2 SWAP1 PUSH1 0x0 MSTORE PUSH1 0x20 PUSH1 0x0 KECCAK256 SWAP1 JUMPDEST DUP2 SLOAD DUP2 MSTORE SWAP1 PUSH1 0x1 ADD SWAP1 PUSH1 0x20 ADD DUP1 DUP4 GT PUSH2 0x2F2 JUMPI DUP3 SWAP1 SUB PUSH1 0x1F AND DUP3 ADD SWAP2 JUMPDEST POP POP POP POP POP SWAP1 DUP1 PUSH1 0x1 ADD SLOAD SWAP1 DUP1 PUSH1 0x2 ADD SLOAD SWAP1 DUP1 PUSH1 0x3 ADD SLOAD SWAP1 POP DUP5 JUMP JUMPDEST PUSH1 0x0 PUSH1 0x40 MLOAD SWAP1 POP SWAP1 JUMP JUMPDEST PUSH1 0x0 DUP1 REVERT JUMPDEST PUSH1 0x0 DUP1 REVERT JUMPDEST PUSH1 0x0 DUP2 SWAP1 POP SWAP2 SWAP1 POP JUMP JUMPDEST PUSH2 0x352 DUP2 PUSH2 0x33F JUMP JUMPDEST DUP2 EQ PUSH2 0x35D JUMPI PUSH1 0x0 DUP1 REVERT JUMPDEST POP JUMP JUMPDEST PUSH1 0x0 DUP2 CALLDATALOAD SWAP1 POP PUSH2 0x36F DUP2 PUSH2 0x349 JUMP JUMPDEST SWAP3 SWAP2 POP POP JUMP JUMPDEST PUSH1 0x0 PUSH1 0x20 DUP3 DUP5 SUB SLT ISZERO PUSH2 0x38B JUMPI PUSH2 0x38A PUSH2 0x335 JUMP JUMPDEST JUMPDEST PUSH1 0x0 PUSH2 0x399 DUP5 DUP3 DUP6 ADD PUSH2 0x360 JUMP JUMPDEST SWAP2 POP POP SWAP3 SWAP2 POP POP JUMP JUMPDEST PUSH1 0x0 DUP1 REVERT JUMPDEST PUSH1 0x0 DUP1 REVERT JUMPDEST PUSH1 0x0 PUSH1 0x1F NOT PUSH1 0x1F DUP4 ADD AND SWAP1 POP SWAP2 SWAP1 POP JUMP JUMPDEST PUSH32 0x4E487B7100000000000000000000000000000000000000000000000000000000 PUSH1 0x0 MSTORE PUSH1 0x41 PUSH1 0x4 MSTORE PUSH1 0x24 PUSH1 0x0 REVERT JUMPDEST PUSH2 0x3F5 DUP3 PUSH2 0x3AC JUMP JUMPDEST DUP2 ADD DUP2 DUP2 LT PUSH8 0xFFFFFFFFFFFFFFFF DUP3 GT OR ISZERO PUSH2 0x414 JUMPI PUSH2 0x413 PUSH2 0x3BD JUMP JUMPDEST JUMPDEST DUP1 PUSH1 0x40 MSTORE POP POP POP JUMP JUMPDEST PUSH1 0x0 PUSH2 0x427 PUSH2 0x32B JUMP JUMPDEST SWAP1 POP PUSH2 0x433 DUP3 DUP3 PUSH2 0x3EC JUMP JUMPDEST SWAP2 SWAP1 POP JUMP JUMPDEST PUSH1 0x0 PUSH8 0xFFFFFFFFFFFFFFFF DUP3 GT ISZERO PUSH2 0x453 JUMPI PUSH2 0x452 PUSH2 0x3BD JUMP JUMPDEST JUMPDEST PUSH2 0x45C DUP3 PUSH2 0x3AC JUMP JUMPDEST SWAP1 POP PUSH1 0x20 DUP2 ADD SWAP1 POP SWAP2 SWAP1 POP JUMP JUMPDEST DUP3 DUP2 DUP4 CALLDATACOPY PUSH1 0x0 DUP4 DUP4 ADD MSTORE POP POP POP JUMP JUMPDEST PUSH1 0x0 PUSH2 0x48B PUSH2 0x486 DUP5 PUSH2 0x438 JUMP JUMPDEST PUSH2 0x41D JUMP JUMPDEST SWAP1 POP DUP3 DUP2 MSTORE PUSH1 0x20 DUP2 ADD DUP5 DUP5 DUP5 ADD GT ISZERO PUSH2 0x4A7 JUMPI PUSH2 0x4A6 PUSH2 0x3A7 JUMP JUMPDEST JUMPDEST PUSH2 0x4B2 DUP5 DUP3 DUP6 PUSH2 0x469 JUMP JUMPDEST POP SWAP4 SWAP3 POP POP POP JUMP JUMPDEST PUSH1 0x0 DUP3 PUSH1 0x1F DUP4 ADD SLT PUSH2 0x4CF JUMPI PUSH2 0x4CE PUSH2 0x3A2 JUMP JUMPDEST JUMPDEST DUP2 CALLDATALOAD PUSH2 0x4DF DUP5 DUP3 PUSH1 0x20 DUP7 ADD PUSH2 0x478 JUMP JUMPDEST SWAP2 POP POP SWAP3 SWAP2 POP POP JUMP JUMPDEST PUSH1 0x0 DUP2 SWAP1 POP SWAP2 SWAP1 POP JUMP JUMPDEST PUSH2 0x4FB DUP2 PUSH2 0x4E8 JUMP JUMPDEST DUP2 EQ PUSH2 0x506 JUMPI PUSH1 0x0 DUP1 REVERT JUMPDEST POP JUMP JUMPDEST PUSH1 0x0 DUP2 CALLDATALOAD SWAP1 POP PUSH2 0x518 DUP2 PUSH2 0x4F2 JUMP JUMPDEST SWAP3 SWAP2 POP POP JUMP JUMPDEST PUSH1 0x0 DUP1 PUSH1 0x0 DUP1 PUSH1 0x80 DUP6 DUP8 SUB SLT ISZERO PUSH2 0x538 JUMPI PUSH2 0x537 PUSH2 0x335 JUMP JUMPDEST JUMPDEST PUSH1 0x0 PUSH2 0x546 DUP8 DUP3 DUP9 ADD PUSH2 0x360 JUMP JUMPDEST SWAP5 POP POP PUSH1 0x20 DUP6 ADD CALLDATALOAD PUSH8 0xFFFFFFFFFFFFFFFF DUP2 GT ISZERO PUSH2 0x567 JUMPI PUSH2 0x566 PUSH2 0x33A JUMP JUMPDEST JUMPDEST PUSH2 0x573 DUP8 DUP3 DUP9 ADD PUSH2 0x4BA JUMP JUMPDEST SWAP4 POP POP PUSH1 0x40 PUSH2 0x584 DUP8 DUP3 DUP9 ADD PUSH2 0x509 JUMP JUMPDEST SWAP3 POP POP PUSH1 0x60 PUSH2 0x595 DUP8 DUP3 DUP9 ADD PUSH2 0x509 JUMP JUMPDEST SWAP2 POP POP SWAP3 SWAP6 SWAP2 SWAP5 POP SWAP3 POP JUMP JUMPDEST PUSH1 0x0 DUP2 MLOAD SWAP1 POP SWAP2 SWAP1 POP JUMP JUMPDEST PUSH1 0x0 DUP3 DUP3 MSTORE PUSH1 0x20 DUP3 ADD SWAP1 POP SWAP3 SWAP2 POP POP JUMP JUMPDEST PUSH1 0x0 JUMPDEST DUP4 DUP2 LT ISZERO PUSH2 0x5DB JUMPI DUP1 DUP3 ADD MLOAD DUP2 DUP5 ADD MSTORE PUSH1 0x20 DUP2 ADD SWAP1 POP PUSH2 0x5C0 JUMP JUMPDEST PUSH1 0x0 DUP5 DUP5 ADD MSTORE POP POP POP POP JUMP JUMPDEST PUSH1 0x0 PUSH2 0x5F2 DUP3 PUSH2 0x5A1 JUMP JUMPDEST PUSH2 0x5FC DUP2 DUP6 PUSH2 0x5AC JUMP JUMPDEST SWAP4 POP PUSH2 0x60C DUP2 DUP6 PUSH1 0x20 DUP7 ADD PUSH2 0x5BD JUMP JUMPDEST PUSH2 0x615 DUP2 PUSH2 0x3AC JUMP JUMPDEST DUP5 ADD SWAP2 POP POP SWAP3 SWAP2 POP POP JUMP JUMPDEST PUSH2 0x629 DUP2 PUSH2 0x4E8 JUMP JUMPDEST DUP3 MSTORE POP POP JUMP JUMPDEST PUSH1 0x0 PUSH1 0x80 DUP3 ADD SWAP1 POP DUP2 DUP2 SUB PUSH1 0x0 DUP4 ADD MSTORE PUSH2 0x649 DUP2 DUP8 PUSH2 0x5E7 JUMP JUMPDEST SWAP1 POP PUSH2 0x658 PUSH1 0x20 DUP4 ADD DUP7 PUSH2 0x620 JUMP JUMPDEST PUSH2 0x665 PUSH1 0x40 DUP4 ADD DUP6 PUSH2 0x620 JUMP JUMPDEST PUSH2 0x672 PUSH1 0x60 DUP4 ADD DUP5 PUSH2 0x620 JUMP JUMPDEST SWAP6 SWAP5 POP POP POP POP POP JUMP JUMPDEST PUSH32 0x496E636F7272656374207469636B657420707269636500000000000000000000 PUSH1 0x0 DUP3 ADD MSTORE POP JUMP JUMPDEST PUSH1 0x0 PUSH2 0x6B1 PUSH1 0x16 DUP4 PUSH2 0x5AC JUMP JUMPDEST SWAP2 POP PUSH2 0x6BC DUP3 PUSH2 0x67B JUMP JUMPDEST PUSH1 0x20 DUP3 ADD SWAP1 POP SWAP2 SWAP1 POP JUMP JUMPDEST PUSH1 0x0 PUSH1 0x20 DUP3 ADD SWAP1 POP DUP2 DUP2 SUB PUSH1 0x0 DUP4 ADD MSTORE PUSH2 0x6E0 DUP2 PUSH2 0x6A4 JUMP JUMPDEST SWAP1 POP SWAP2 SWAP1 POP JUMP JUMPDEST PUSH32 0x5469636B65747320736F6C64206F757400000000000000000000000000000000 PUSH1 0x0 DUP3 ADD MSTORE POP JUMP JUMPDEST PUSH1 0x0 PUSH2 0x71D PUSH1 0x10 DUP4 PUSH2 0x5AC JUMP JUMPDEST SWAP2 POP PUSH2 0x728 DUP3 PUSH2 0x6E7 JUMP JUMPDEST PUSH1 0x20 DUP3 ADD SWAP1 POP SWAP2 SWAP1 POP JUMP JUMPDEST PUSH1 0x0 PUSH1 0x20 DUP3 ADD SWAP1 POP DUP2 DUP2 SUB PUSH1 0x0 DUP4 ADD MSTORE PUSH2 0x74C DUP2 PUSH2 0x710 JUMP JUMPDEST SWAP1 POP SWAP2 SWAP1 POP JUMP JUMPDEST PUSH32 0x4E487B7100000000000000000000000000000000000000000000000000000000 PUSH1 0x0 MSTORE PUSH1 0x11 PUSH1 0x4 MSTORE PUSH1 0x24 PUSH1 0x0 REVERT JUMPDEST PUSH1 0x0 PUSH2 0x78D DUP3 PUSH2 0x4E8 JUMP JUMPDEST SWAP2 POP PUSH32 0xFFFFFFFFFFFFFFFFFFFFFFFFFFFFFFFFFFFFFFFFFFFFFFFFFFFFFFFFFFFFFFFF DUP3 SUB PUSH2 0x7BF JUMPI PUSH2 0x7BE PUSH2 0x753 JUMP JUMPDEST JUMPDEST PUSH1 0x1 DUP3 ADD SWAP1 POP SWAP2 SWAP1 POP JUMP JUMPDEST PUSH32 0x4E487B7100000000000000000000000000000000000000000000000000000000 PUSH1 0x0 MSTORE PUSH1 0x22 PUSH1 0x4 MSTORE PUSH1 0x24 PUSH1 0x0 REVERT JUMPDEST PUSH1 0x0 PUSH1 0x2 DUP3 DIV SWAP1 POP PUSH1 0x1 DUP3 AND DUP1 PUSH2 0x811 JUMPI PUSH1 0x7F DUP3 AND SWAP2 POP JUMPDEST PUSH1 0x20 DUP3 LT DUP2 SUB PUSH2 0x824 JUMPI PUSH2 0x823 PUSH2 0x7CA JUMP JUMPDEST JUMPDEST POP SWAP2 SWAP1 POP JUMP JUMPDEST PUSH1 0x0 DUP2 SWAP1 POP DUP2 PUSH1 0x0 MSTORE PUSH1 0x20 PUSH1 0x0 KECCAK256 SWAP1 POP SWAP2 SWAP1 POP JUMP JUMPDEST PUSH1 0x0 PUSH1 0x20 PUSH1 0x1F DUP4 ADD DIV SWAP1 POP SWAP2 SWAP1 POP JUMP JUMPDEST PUSH1 0x0 DUP3 DUP3 SHL SWAP1 POP SWAP3 SWAP2 POP POP JUMP JUMPDEST PUSH1 0x0 PUSH1 0x8 DUP4 MUL PUSH2 0x88C PUSH32 0xFFFFFFFFFFFFFFFFFFFFFFFFFFFFFFFFFFFFFFFFFFFFFFFFFFFFFFFFFFFFFFFF DUP3 PUSH2 0x84F JUMP JUMPDEST PUSH2 0x896 DUP7 DUP4 PUSH2 0x84F JUMP JUMPDEST SWAP6 POP DUP1 NOT DUP5 AND SWAP4 POP DUP1 DUP7 AND DUP5 OR SWAP3 POP POP POP SWAP4 SWAP3 POP POP POP JUMP JUMPDEST PUSH1 0x0 DUP2 SWAP1 POP SWAP2 SWAP1 POP JUMP JUMPDEST PUSH1 0x0 PUSH2 0x8D3 PUSH2 0x8CE PUSH2 0x8C9 DUP5 PUSH2 0x4E8 JUMP JUMPDEST PUSH2 0x8AE JUMP JUMPDEST PUSH2 0x4E8 JUMP JUMPDEST SWAP1 POP SWAP2 SWAP1 POP JUMP JUMPDEST PUSH1 0x0 DUP2 SWAP1 POP SWAP2 SWAP1 POP JUMP JUMPDEST PUSH2 0x8ED DUP4 PUSH2 0x8B8 JUMP JUMPDEST PUSH2 0x901 PUSH2 0x8F9 DUP3 PUSH2 0x8DA JUMP JUMPDEST DUP5 DUP5 SLOAD PUSH2 0x85C JUMP JUMPDEST DUP3 SSTORE POP POP POP POP JUMP JUMPDEST PUSH1 0x0 SWAP1 JUMP JUMPDEST PUSH2 0x916 PUSH2 0x909 JUMP JUMPDEST PUSH2 0x921 DUP2 DUP5 DUP5 PUSH2 0x8E4 JUMP JUMPDEST POP POP POP JUMP JUMPDEST JUMPDEST DUP2 DUP2 LT ISZERO PUSH2 0x945 JUMPI PUSH2 0x93A PUSH1 0x0 DUP3 PUSH2 0x90E JUMP JUMPDEST PUSH1 0x1 DUP2 ADD SWAP1 POP PUSH2 0x927 JUMP JUMPDEST POP POP JUMP JUMPDEST PUSH1 0x1F DUP3 GT ISZERO PUSH2 0x98A JUMPI PUSH2 0x95B DUP2 PUSH2 0x82A JUMP JUMPDEST PUSH2 0x964 DUP5 PUSH2 0x83F JUMP JUMPDEST DUP2 ADD PUSH1 0x20 DUP6 LT ISZERO PUSH2 0x973 JUMPI DUP2 SWAP1 POP JUMPDEST PUSH2 0x987 PUSH2 0x97F DUP6 PUSH2 0x83F JUMP JUMPDEST DUP4 ADD DUP3 PUSH2 0x926 JUMP JUMPDEST POP POP JUMPDEST POP POP POP JUMP JUMPDEST PUSH1 0x0 DUP3 DUP3 SHR SWAP1 POP SWAP3 SWAP2 POP POP JUMP JUMPDEST PUSH1 0x0 PUSH2 0x9AD PUSH1 0x0 NOT DUP5 PUSH1 0x8 MUL PUSH2 0x98F JUMP JUMPDEST NOT DUP1 DUP4 AND SWAP2 POP POP SWAP3 SWAP2 POP POP JUMP JUMPDEST PUSH1 0x0 PUSH2 0x9C6 DUP4 DUP4 PUSH2 0x99C JUMP JUMPDEST SWAP2 POP DUP3 PUSH1 0x2 MUL DUP3 OR SWAP1 POP SWAP3 SWAP2 POP POP JUMP JUMPDEST PUSH2 0x9DF DUP3 PUSH2 0x5A1 JUMP JUMPDEST PUSH8 0xFFFFFFFFFFFFFFFF DUP2 GT ISZERO PUSH2 0x9F8 JUMPI PUSH2 0x9F7 PUSH2 0x3BD JUMP JUMPDEST JUMPDEST PUSH2 0xA02 DUP3 SLOAD PUSH2 0x7F9 JUMP JUMPDEST PUSH2 0xA0D DUP3 DUP3 DUP6 PUSH2 0x949 JUMP JUMPDEST PUSH1 0x0 PUSH1 0x20 SWAP1 POP PUSH1 0x1F DUP4 GT PUSH1 0x1 DUP2 EQ PUSH2 0xA40 JUMPI PUSH1 0x0 DUP5 ISZERO PUSH2 0xA2E JUMPI DUP3 DUP8 ADD MLOAD SWAP1 POP JUMPDEST PUSH2 0xA38 DUP6 DUP3 PUSH2 0x9BA JUMP JUMPDEST DUP7 SSTORE POP PUSH2 0xAA0 JUMP JUMPDEST PUSH1 0x1F NOT DUP5 AND PUSH2 0xA4E DUP7 PUSH2 0x82A JUMP JUMPDEST PUSH1 0x0 JUMPDEST DUP3 DUP2 LT ISZERO PUSH2 0xA76 JUMPI DUP5 DUP10 ADD MLOAD DUP3 SSTORE PUSH1 0x1 DUP3 ADD SWAP2 POP PUSH1 0x20 DUP6 ADD SWAP5 POP PUSH1 0x20 DUP2 ADD SWAP1 POP PUSH2 0xA51 JUMP JUMPDEST DUP7 DUP4 LT ISZERO PUSH2 0xA93 JUMPI DUP5 DUP10 ADD MLOAD PUSH2 0xA8F PUSH1 0x1F DUP10 AND DUP3 PUSH2 0x99C JUMP JUMPDEST DUP4 SSTORE POP JUMPDEST PUSH1 0x1 PUSH1 0x2 DUP9 MUL ADD DUP9 SSTORE POP POP POP JUMPDEST POP POP POP POP POP POP JUMP JUMPDEST PUSH1 0x0 PUSH1 0x60 DUP3 ADD SWAP1 POP DUP2 DUP2 SUB PUSH1 0x0 DUP4 ADD MSTORE PUSH2 0xAC2 DUP2 DUP7 PUSH2 0x5E7 JUMP JUMPDEST SWAP1 POP PUSH2 0xAD1 PUSH1 0x20 DUP4 ADD DUP6 PUSH2 0x620 JUMP JUMPDEST PUSH2 0xADE PUSH1 0x40 DUP4 ADD DUP5 PUSH2 0x620 JUMP JUMPDEST SWAP5 SWAP4 POP POP POP POP JUMP INVALID LOG2 PUSH5 0x6970667358 0x22 SLT KECCAK256 0xC9 0xC ORIGIN PUSH6 0x8F3F1D685724 0xB3 PUSH10 0xB7701E009E32E53D842D 0xE3 NOT AND 0xA8 SWAP3 0xBC 0xB5 SWAP1 PUSH12 0x7A64736F6C634300081A0033 "
        },
        "methodIdentifiers": {
          "createEvent(bytes32,string,uint256,uint256)": "4502b8f9",
          "events(bytes32)": "bfdc4a61",
          "purchaseTicket(bytes32)": "129a4202"
        }
      }
    }
  }
}